S00C00004C3361312E7372656307
S11300000C9456000C9460000C9460000C946000F6
S11300100C9460000C9460000C9460000C946000DC
S11300200C9460000C9460000C9460000C946000CC
S11300300C9460000C9460000C9460000C946000BC
S11300400C9460000C9460000C9460000C946000AC
S11300500C9460000C9460000C9460000C9460009C
S11300600C9460000C9460000C9460000C9460008C
S11300700C9460000C9449010C9460000C94600092
S11300800C9460000C9460000C9460000C9460006C
S11300900C9460000C9460000C9460000C9460005C
S11300A00C9460000C9460000C94600011241FBE3A
S11300B0CFEFDAE0DEBFCDBF0E94D7000C941B0364
S11300C00C940000269A52985398549855985A9A2A
S11300D05B9A5C9A5D9AE1E6F0E080E8808384E0D4
S11300E08083E8E8F0E086E79AE791838083808163
S11300F091819695879590938B0080938A00E1E88F
S1130100F0E0808180618083808188608083A0E8C2
S1130110B0E08C9182608C938C9181608C938C91F3
S113012080628C938C918F7E8C9380818B7F808373
S11301308081826080838081816080830895CF93F1
S1130140DF93ACE7B0E08C918F778C938C918064D3
S11301508C93EAE7F0E080818B7F808380818260EA
S11301608083808181608083CEE7D0E08881816054
S11301708883789480818860808380818F7D808368
S1130180CBE7D0E088818F7D88838C918B7F8C93A3
S11301908C918D7F8C938C918E7F8C9380818068E1
S11301A08083808180648083DF91CF9108950E9451
S11301B062000E949F006E9A7698212C312C612C4B
S11301C0512C412C6894772476F80F2EF8E8EF2E02
S11301D0F12CF02D0F2EFAE8CF2ED12CF02D4A9BC6
S11301E005C0D62DC52D142D072D04C0D22DC32D29
S11301F010E80FE34B9B0EC0262D352D442D572DB3
S11302006D2F7C2F812F902F0E948501D62FC72F11
S1130210182F092F4C9B0EC020E030E040E850E43A
S11302206D2F7C2F812F902F0E948501D62FC72FF1
S1130230182F092F4D9B0EC020E030E040E051E420
S11302406D2F7C2F812F902F0E948501D62FC72FD1
S1130250182F092FF7016081718180E090E00E94DE
S113026020024B015C0120E030E040E85DE36D2FAB
S11302707C2F812F902F0E94AE029B01AC01C501FF
S1130280B4010E94AE020E94F101F6017183608301
S1130290A6CF1F920F920FB60F9211242F933F9364
S11302A04F935F936F937F938F939F93AF93BF937A
S11302B0EF93FF93609178007091790080E090E073
S11302C00E9420022AE439E245EF51E40E94AE0282
S11302D00E94F1017093890060938800EAE7F0E0DE
S11302E0808180648083FF91EF91BF91AF919F9152
S11302F08F917F916F915F914F913F912F910F90CB
S11303000FBE0F901F9018955058BB27AA270E9424
S11303109C010C9474020E94660238F00E946D02E3
S113032020F039F49F3F19F426F40C9463020EF480
S1130330E095E7FB0C945D02E92F0E94850258F3D7
S1130340BA17620773078407950720F079F4A6F5B6
S11303500C94A7020EF4E0950B2EBA2FA02D0B01DE
S1130360B90190010C01CA01A0011124FF27591BF6
S113037099F0593F50F4503E68F11A16F040A22FFC
S1130380232F342F4427585FF3CF4695379527956D
S1130390A795F0405395C9F77EF41F16BA0B620B6C
S11303A0730B840BBAF09150A1F0FF0FBB1F661FB3
S11303B0771F881FC2F70EC0BA0F621F731F841FF6
S11303C048F4879577956795B795F7959E3F08F01C
S11303D0B0CF9395880F08F09927EE0F97958795DE
S11303E008950E948D0288F09F5798F0B92F99279D
S11303F0B751B0F0E1F0660F771F881F991F1AF00C
S1130400BA95C9F714C0B13091F00E94A702B1E0C7
S113041008950C94A702672F782F8827B85F39F0C6
S1130420B93FCCF3869577956795B395D9F73EF4A4
S113043090958095709561957F4F8F4F9F4F08954C
S1130440E89409C097FB3EF490958095709561956A
S11304507F4F8F4F9F4F9923A9F0F92F96E9BB2720
S11304609395F695879577956795B795F111F8CF9C
S1130470FAF4BB0F11F460FF1BC06F5F7F4F8F4F07
S11304809F4F16C0882311F096E911C0772321F0FD
S11304909EE8872F762F05C0662371F096E8862F95
S11304A070E060E02AF09A95660F771F881FDAF7EC
S11304B0880F9695879597F9089597F99F6780E82F
S11304C070E060E008959FEF80EC089500240A94A2
S11304D01616170618060906089500240A9412161B
S11304E01306140605060895092E0394000C11F44E
S11304F0882352F0BB0F40F4BF2B11F460FF04C0FB
S11305006F5F7F4F8F4F9F4F089557FD9058440F53
S1130510551F59F05F3F71F04795880F97FB991F5E
S113052061F09F3F79F0879508951216130614061B
S1130530551FF2CF4695F1DF08C0161617061806A8
S1130540991FF1CF86957105610508940895E89483
S1130550BB2766277727CB0197F908950E94C1022C
S11305600C9474020E94660238F00E946D0220F01E
S1130570952311F00C945D020C94630211240C94E5
S1130580A8020E94850270F3959FC1F3950F50E075
S1130590551F629FF001729FBB27F00DB11D639F31
S11305A0AA27F00DB11DAA1F649F6627B00DA11DD7
S11305B0661F829F2227B00DA11D621F739FB00D7D
S11305C0A11D621F839FA00D611D221F749F3327ED
S11305D0A00D611D231F849F600D211D822F762F86
S11305E06A2F11249F5750409AF0F1F088234AF063
S11305F0EE0FFF1FBB1F661F771F881F91505040CF
S1130600A9F79E3F510580F00C945D020C94A8025A
S11306105F3FE4F3983ED4F3869577956795B79555
S1130620F795E7959F5FC1F7FE2B880F911D96956F
S10D0630879597F90895F894FFCF19
S9030000FC
